:020000040800F2
:10000000C8220020017600083D3E00083F3E00085F
:10001000413E0008433E0008453E00080000000045
:10002000000000000000000000000000473E000843
:10003000493E0008000000004B3E00084D3E00080D
:100040001B7600081B7600081B7600081B7600084C
:100050001B7600081B760008693E00081B76000826
:100060001B760008793E00081B7600081B76000806
:100070001B7600081B7600081B7600081B7600081C
:100080001B7600081B7600081B7600081B7600080C
:10009000B94700081B7600081B760008893E000857
:1000A0001B7600081B7600081B7600081B760008EC
:1000B0001B7600081B7600081B7600081B760008DC
:1000C0001B7600081B7600081B7600081B760008CC
:1000D0001B760008695E00081B7600081B76000886
:1000E000573E00081B760008BD47000800F002F8E4
:1000F00000F065F80AA090E8000C82448344AAF15D
:100100000107DA4501D100F05AF8AFF2090EBAE85A
:100110000F0013F0010F18BFFB1A43F0010318473B
:1001200090930000B09300000A444FF0000C10F8C8
:10013000013B13F0070408BF10F8014B1D1108BF65
:1001400010F8015B641E05D010F8016B641E01F805
:10015000016BF9D113F0080F1EBF10F8014BAD1C55
:100160000C1B09D16D1E58BF01F801CBFAD505E073
:1001700014F8016B01F8016B6D1EF9D59142D6D3CD
:10018000704700000023002400250026103A28BFF5
:1001900078C1FBD8520728BF30C148BF0B607047F9
:1001A000642907F06B83782907F0A483732907F08B
:1001B000BC85002070471FB51FBD10B510BD07F0EE
:1001C000CFFD1146FFF7F7FF03F0DBFC07F0EDFD75
:1001D00003B4FFF7F2FF03BC05F0A8FD412100F8CE
:1001E000601F88214170B0F86C10C170090A01715C
:1001F00000218170704770B50E4604460025B0F8A6
:10020000C800294602F091FA012E02D1A06D03F038
:100210009DF894F8E0003043C0B203F09CF830B190
:10022000D4F870010125401CC4F8700106E003F009
:10023000A0FEC4F8F405012084F8F305284670BD3B
:100240002DE9F05F4FF00009984693460F460646A9
:100250004C46FC4D4FF0010A17E000BF56F8241041
:10026000A94204D0204600F0D7FD012812D098F80A
:1002700000100AFA04F0814388F80010204600F0CC
:100280002DFE00BF46F82450641CBC42E6DB484605
:10029000BDE8F09FD946F5E72DE9F04F04464378D5
:1002A00000F1BF0A97B0F2300F90884604F59C70B9
:1002B000FF220126002504F160014FF0020B04F239
:1002C000F95904F180070D90092B40D2DFE803F0C3
:1002D00005BFE5F43FF3F2F178002078002860D004
:1002E000012802D0022832D132E0182002F0A4FA0C
:1002F000B4F8CC0002F0BBFAE08CA4F8BF00504682
:1003000002F0BFFAE08CC4F8840102F0B5FA84F878
:1003100002B0667084F8E26084F8F450C4F81051BA
:1003200040F6411502F061F808B141F64115A07A96
:10033000042801D145F080050721284602F024FD5C
:100340002046FFF74BFF03F014FEC4F8E8003FE23D
:10035000E08CA4F8BF00504602F093FAB4F8CC0049
:1003600002F085FAE08C00F0030184F8BE1002F080
:1003700083FAE08CB0F5004F01D184F88C61002045
:1003800002F05AFA002002F0ACFD06206070002056
:1003900003F07CF8002003F0A3F82046FFF71EFFCF
:1003A00016E2002002F048FA002002F09AFD002038
:1003B00003F06CF8002003F093F80620607007E269
:1003C0000A2001F041FC0078042871D1656084F8AE
:1003D000E250A0786070A57003F0CBFDC4F8E8008F
:1003E000032003F0A4FD984F1021384606F071FC5D
:1003F000964E0120C6F8FC5603F00EFF022005F0D1
:1004000084FCD6F8FC060028FDD0002003F004FF91
:100410001021384606F05BFC01F0B1FE01F0AFFEA2
:1004200001F0ADFE01F0ABFE01F0A9FE032003F0E8
:1004300066FD012002F01AFFA08B01F0F7FF504685
:1004400002F01FFA01F038FD01F020FDD6E3A0789C
:1004500002281FD194F8E210E1B114F8F40F401C07
:1004600004F81F09082044F8D1BC04F8D40C02F0A9
:10047000CEFB012204210F9B0D98FFF7E1FEC4F88B
:10048000A700607FA077657703F073FDC4F8B30021
:10049000D53CB3E36070A570B0E3207801280CD0A0
:1004A00094F8FD0084F86A000AD14FF0810009E059
:1004B000A3E310E102E1A4E058E094F8F400F1E7CE
:1004C0004FF0710084F869004FF00D03A4F8C830B4
:1004D00094F8CA0084F8620000F1010084F8CA00B0
:1004E00094F8BF0084F8670094F8C00084F86800AE
:1004F00084F8652084F866204FF00002184604F165
:100500004A0402F001F9C82002F0EBFC14F84A1D7D
:100510004FF6FF7001291ED094F8FD2002F8095013
:1005200084F8E1B0216D00EA410000BF02F0AEFFA7
:1005300084F8F25084F8F15084F8E0B05D46B4F8E5
:10054000C800002102F0F1F8022002F004FF0520AB
:100550006070E57051E394F8F420042102F809502A
:1005600084F8E110216D00EA8100DFE7207801289E
:1005700009D000BF94F8FD0084F86A0006D100BFDE
:1005800094F8F20004E094F8F400F5E794F8F10030
:1005900084F8890002D14FF0820001E04FF073002F
:1005A00084F869004FF02C03A4F8C83094F8CA000E
:1005B00084F8620000F1010084F8CA004FF00002E4
:1005C000184604F1C20402F09FF8A577C23C01214D
:1005D0002046FFF710FE50B12078012803D02046B6
:1005E00001F0B0FA0AE3667084F802B006E3052071
:1005F00060700320E07020780128ABD184F8E260BD
:10060000FBE20B2001F020FB01460078012808D016
:1006100000289FD0042801D06660EEE284F8F060E4
:10062000EBE26560E278032A12D094F8F00001282A
:1006300015D0D1E90201022AC4E9340117D00B2AEE
:1006400036D037E0FFFFCDAB000801405802002054
:1006500020780128C7D0204601F074FA2EE0204609
:1006600001F080FA84F8F05084F8E050C6E2227875
:10067000012A1AD0D4E90E23801859416FF30800DB
:10068000C9B2020A42EA0162A265A28B101845EBC8
:100690000108C4F8840084F88880386DC4F86B00C1
:1006A00097F8540084F86F0004E0D4E90C23E3E7E2
:1006B0000420E070062060704FF0000894F8E0001D
:1006C00090B184F8E050207800B166600720607037
:1006D000B8F1000F86D05FEA080073D0022807D077
:1006E000B8F1040F8CD174E2002002F0A9FEEAE711
:1006F0000F2001F0A9FA002107460391049105910A
:100700000691084684F8E310797F01F0CC0188292E
:1007100030D08C291FD0C82912D0CC2936D1D7F897
:1007200029000390D7F82D000490D7F821000590F8
:10073000D7F82500069097F8310007F1310525E03C
:10074000D7F823000390D7F827000490B7F82100CA
:10075000ADF8140009E0B7F82900ADF80C00D7F89F
:1007600021000590D7F82500069097F82B0007F197
:100770002B050BE0B7F82300ADF80C00B7F821000B
:10078000ADF8140097F8250007F1250594F8E2105C
:1007900009B92178B9B180469DF80C0048F2010EE4
:1007A000824600F00300049006904046B8F1730FB3
:1007B00073D00EDC70284CD071281BD0B8F1720FAA
:1007C0000CD146E017E206206070002002F089FBA1
:1007D00014E281280ED0B8F1820F5ED0062060703E
:1007E000002002F07EFB387F8006F1D5102001F05A
:1007F0002BFA03E2D7E90201C4E936016978B8F1BE
:10080000810F0CD00698204480F8FE10E18C7145D1
:1008100011D1BDF80C00B0F5004F06D00BE00AF086
:100820000700204480F8F510F0E7B4F80411B86927
:100830000844C4F80C01B8780C2802D00E2805D062
:10084000DAE0052060700920E070CCE707206070D6
:10085000C9E7E8794FF40043401CC0B20690BDF8E8
:100860000C0098420BD12078012808D16878A9782B
:1008700000EB012000B2C4F810010020E062B8785B
:100880000C2805D00E2822D02078012806D009E0B7
:10089000052060700A20E07019E071E094F8F21011
:1008A000C9070CD1E18C714503D194F8F1205207AE
:1008B00005D4994206D194F8F110890702D5032096
:1008C000607004E0012835D0204601F03BF9B8F112
:1008D000700F35D094F88C01002884D094F8FD0076
:1008E00006998842B1D184F8FE0010F809009DF8FD
:1008F000141003280AEB010000F0030004EB800051
:10090000D5F80310C0F858119FD104F1F103022269
:10091000042104F5AC70FFF793FCC4F87C0194F853
:10092000F10084F8F300002084F8F100B869C4F8FD
:10093000880158E7667084F802B084F8E260C6E780
:1009400094F8F4200699FE488A4204990FD104EBEA
:100950008102D5F80310C2F838118142E9D0049918
:1009600094F8F2008E40304384F8F2003BE704EB49
:100970008101D1F838218242DBD0C1F8380132E759
:100980000021059195F82030119394F8BE300E9314
:1009900003EB8303DB1DDFF8A8B3DBB20A4608468E
:1009A0000993B8F1820F03D0B8F1730F0AD01AE09F
:1009B0000AF00703234495F801C093F8F530634526
:1009C0001AD110E0069B95F801C0234493F8FE303D
:1009D000634511D194F88C3173B9E38CA3F5004CC5
:1009E000BCF1030C08D0E38C734509D1BDF80CC0F1
:1009F000BCF5004F02D003E0062028E784F8E4604D
:100A0000C4F88031DDF838C00123119E03FA0CF3DD
:100A100033427DD0D7E902E600230596A365AB7982
:100A2000D5F8026063F30702099B603405EB030C01
:100A30009CF80430DCF800B063F30700EB7FD5F8D6
:100A40001BC063F30701BBEB060360EB0202D2B2EB
:100A5000CDE91123256F743494E84C00D43CEB1A93
:100A600062EB06061493059BBEEB050563EB0203E0
:100A7000F6B20B96DAB2CDE91525BCEB0B0B61EBA8
:100A80000001C9B213910B99149807F09DFC05461B
:100A90000E465846139907F097FC2A46334607F04E
:100AA00033FD04910890DDE9151007F08DFC054633
:100AB0000E46DDE9111007F087FC2A46334607F0A1
:100AC00023FD049B089A07F05FFE04910C900B999C
:100AD000149807F079FC06460991DDE9151007F036
:100AE00073FC3246099B07F015FA0B9102905846A9
:100AF000139907F069FC05460E46DDE9111007F071
:100B000063FC2A46334607F005FA0B9B029A00E085
:100B10000CE007F0FFF90B46024604990C9807F029
:100B2000B5FA07F00BFCC117834605919DF80D102F
:100B3000B8F1820F0AEB0120C4F8840112D00699A3
:100B400004EB8101C1F848B194F8F80510F90910D7
:100B5000002939DB494249B200F8091094F8F80538
:100B600071B331E000F0070004EB80000122C0F80F
:100B700018B104210F9B0D98FFF762FBC4F87C01AC
:100B800094F8F20084F8F300002084F8F2006C4A34
:100B900005998BEA020008430ED094F8BE10504627
:100BA00000F088F994F8BE100120884004EB810120
:100BB00084F8F200C1F838B1B869C4F88801C3E715
:100BC0004FF0FF3100F8091001F076F901F05EF9FD
:100BD00012E7112001F038F880780C2802D00F2895
:100BE00005D00BE0052060700B20E07006E0204689
:100BF00000F0B8FF02E0606800B96660606817B096
:100C0000BDE8F08F2DE9F05F834600244D480321B5
:100C100008F0F0F905464C4907F034FF07F09EFE56
:100C200007F0D8F807F08AFB00EB4000000107F05E
:100C3000EBFF0146284607F0BDFE444DE97B79B144
:100C4000434E012911D0434907F0F6FF4FEA060150
:100C500007F0B0FE0746A87A10F0030F07D028E08F
:100C60003D4907F0E9FF3D49F2E73D49ECE78010D7
:100C70000E281ED2DFE800F01D1B0F071D180D1DEA
:100C80001D150A1D1D124FF08B4412E04FF08A44CF
:100C90000FE0344C0DE04FF089440AE04FF08844F7
:100CA00007E04FF0874404E04FF0864401E04FF046
:100CB000854426492C48A846C97B6D7A405C07F0DC
:100CC000A3FF012D21467DD007F074FE274900BF08
:100CD00007F0B2FF05460020394607F06BFE07F02B
:100CE0003DFEDFF88C9000224B4607F0CFF904461A
:100CF0000E46284607F032FE8A460546224633460F
:100D000007F008F91B4A1C4B07F0C0F907F016FB67
:100D100000F11006584607F040FB00F067F8444623
:100D2000C4E90C010BEBDB70642101EB600007F000
:100D300034FB00F05BF8C4E90E0138461EE0000009
:100D4000FFFFCDAB000098410000A54358020020F2
:100D50000046A846C3350043853400460045284870
:100D60007B3480440000C04424910008B341823F9A
:100D700000408F400D71AC8BDB68F03F07F0EEFD5B
:100D800000224B4607F082F92A46534607F0C2F884
:100D900007F0D4FAE17B4FF49677E9B106F5967146
:100DA000C4E9141600F5967007F0F7FA00F01EF883
:100DB000C4E910012846514600F018F8000A40EA3C
:100DC000016000E004E01030C4E91207BDE8F09FC4
:100DD00007F0F0FD03497BE706F52F71E0E70249D4
:100DE000C8847047EA5B7E3F5802002010B5F64A7F
:100DF000F64B07F04BF90022F54B07F047F9BDE839
:100E0000104008F05BB810B507F0C7FABDE8104015
:100E1000ED4AEE4B07F078BB2DE9F0410746084656
:100E2000FFF7F1FF4FF09852EA4B07F06DFBEA4AEB
:100E3000E94E02EBC70220360446C2E90001707C8D
:100E40000D4660B1307A052806D0E44AE44B2046CE
:100E5000294607F01BF904E0E24AE34BF7E7204696
:100E6000294607F025F80146727A307A02F0CCFC68
:100E700022462B4607F07CFC002204460D46134612
:100E800007F006FB06D30022D84B2046294607F080
:100E900039FC02D20020BDE8F081CF48203800EBB9
:100EA000C700C0E90045D6F87801401CC6F87801B3
:100EB0000120F0E7C84AC84B203A02EBC102603B70
:100EC000D2E9001203EBC000C0E900127047C2492A
:100ED000603901EBC001D1E900017047BE4B002130
:100EE00003EBC003C3E90011BB4B203B03EBC00085
:100EF000C0E90011704730B5B7490020A1F12002C8
:100F0000BB4C01EBC0050023C5E9003402EBC00572
:100F1000401CC5E900340428F2DB30BDAE49203165
:100F200008707047AC48203000787047AA492031DB
:100F30000022D1F87C01C1F87C217047A6482030FE
:100F4000D0F880017047A4482030D0F88401704761
:100F5000A1482030D0F8880170472DE9F0419E4C1F
:100F6000002720343D463E460120E76502F0D5FAD1
:100F700084F8CA609F49C7EBC70004EB0022C4F89D
:100F8000786100BF02EB85006D1CC0F83811042D9C
:100F9000F8DB002002EB8003401CC3F8181108287E
:100FA000F8DB78E70FB4A02270B58B4C0025203415
:100FB0008DF8AB5094F8F1052C9E00EB800004EB0B
:100FC000401004A900F5C87006F0C9FD94F8F105B9
:100FD00000EB800004EB401080F8906194F8F1057C
:100FE000401CC0B284F8F105062801D184F8F155FF
:100FF00070BC5DF814FB014610B50F2001F0030131
:10100000012903D0022901D003290FD072492031D0
:1010100091F9E120002A09DDB1F85000504380B277
:1010200002F034FA002002F00BFA0E2010BD10B5C9
:10103000694C2034A16CA06D401A02F087F90120A0
:1010400002F0FEF9002813D0606D4FF6FF7101EA3F
:10105000400002F01BFA002002F0F2F9B4F854004C
:1010600080B202F013FAD4F87401401CC4F8740181
:1010700010BD2DE9F041584C00262034804694F8EC
:10108000E1000F46354628B9002002F0FFF90020A4
:1010900002F026FAF8070CD094F8E1102046012956
:1010A00000D1012690F88C1179B994F8BE0003287C
:1010B0000BD094F84400226C0306A16D43EA122081
:1010C0000818A065F90708D00EE0002002F0DEF94C
:1010D000002002F0B5F90E20DDE694F9E11094F855
:1010E000BE201144032900D086B3022184F8E01009
:1010F00002F02CF9032002F02EF9A0B1002001F03B
:10110000F0FE84F8E050D4F87001401CC4F870017F
:1011100094F84410226C0B0643EA1221A06D491882
:101120004018A06516E0206C94F84420000AA16DD8
:1011300040EA026008184FF00C05A06502F019FFA4
:10114000C4F8F405012084F8F30506E0FFE7B8F1E0
:10115000000F04D0FFF76BFF0E2528469BE600200A
:1011600002F094F9002002F06BF9F5E70FB41A4889
:10117000F0B520300146077891F9E1300024591E7E
:1011800044250426A5B04AB2022F35D0DFB180F83D
:10119000E1200020FFF72FFF8DF8AA008DF8A8406E
:1011A0008DF8A950ADF8AC4090222EA9684624963F
:1011B00006F0D5FC2AAF97E80F00FFF7F3FE25B045
:1011C000F0BC5DF814FB23E0FA48CE3B1835B13D86
:1011D00080842E4119DDB14138020020F6285C8F51
:1011E000C2F5F43F295C8FC2F528F83F0088D34050
:1011F000E0FFEF40FFFFCDAB002B06DD80F8E120E4
:1012000000210846FFF735FFC6E7002002F03EF94F
:1012100025B00020F0BC5DF814EB02F011B90146D6
:1012200010B50F2001F00301FE4CE28CB2F5004F27
:101230000AD101290ED1B4F8500080B202F026F98B
:10124000002002F0FDF80E20E18C48F201029142EC
:1012500000D10F2010BD2DE9F0470F46F14C064696
:1012600000F007014FF01308DDF82090D819A4F81A
:10127000C8800088A4F8650094F8BF0084F867006F
:1012800094F8C00084F8680004EB81002144D0F891
:101290001871E76611F8F57F002584F870700D70FD
:1012A0009918497884F8F41094F8CA1084F86210F8
:1012B000491C84F8CA10DC49D0F818218A420CD0A5
:1012C00094F8BE1001228A4084F8F22004EB8101D8
:1012D000D0F81801C1F8380107E094F8BE0004EB1B
:1012E0008000C0F8381184F8F250E06C01F0F9FD8C
:1012F00094F88C01C8B1B4F80211B4F80431B9FB08
:10130000F1F201FB1290F2B25A43101A4A0852420B
:10131000824200DD0844C4F81001B4F8101184F8CA
:101320006A10090A84F86B1005E0C4F8105184F8BB
:101330006A5084F86B50702084F8690000214046A0
:1013400001F0F3F904F160014046BDE8F0470022E6
:1013500001F0DAB970B5B34C13261944A4F8C8608B
:101360000988A4F8651094F8BF1084F8671094F801
:10137000C01000F0030084F8681004EB80012044E2
:10138000D1F84811E16610F8FE1F002584F87010AE
:1013900005709818407884F8FD0094F8CA0084F825
:1013A0006200401C84F8CA0054F84C0F01F099FD0B
:1013B000C4F8C450A577E5777220607700213046E5
:1013C0004C3C01F0B2F904F160013046BDE87040D8
:1013D000002201F099B92DE9F04F4FF00008D1B08B
:1013E0000446CDF83881C346C246CDF83C8102F0B0
:1013F000C0FD2C9020792AA90F25DFF8289225918D
:1014000002280DD0042875D09022684606F0A7FB6C
:1014100026AC94E80F00FFF7A9FE51B0BDE8F08FAD
:10142000E088ADF89C00207A412801D0612804D1E1
:10143000607A00F0CC00882833D063274EA801F0F2
:10144000E3F9E1882DA80022019001F07AF99DF8D6
:1014500038119DF839019DF83B2101EB00209DF8E2
:101460003A11090401EB026108442A909DF83C01FD
:101470002A9ACDE9280818EB020240EB0801CDE9D1
:10148000282100062A99022F00EB11202B908DF8BD
:1014900098808DF899708DF89A5008D090222599EF
:1014A000B3E74FF0090B4FF0070A0227C6E726A95A
:1014B00001EB0A000126027F407F02EB002085B28B
:1014C00099F8000000287CD04C46012804D194F8FB
:1014D000E120521E84F8E12059440B7F732B0ED07B
:1014E00009DC48F20202702B7AD0712B08D0722BE3
:1014F00067D175E046E1812B3ED0822BF8D118E10F
:1015000094F88C31002BF3D1E38C934259D8012805
:101510007ED005F003020092487F62F31F108030F6
:10152000C0B284F8F805204480F8F985032002F061
:10153000FEFC5A4651462846019BFFF70BFF48F236
:101540000100854204D0B4F8540080B201F09EFF3F
:101550002B98A065E08C411B01F0030184F8E11099
:101560000321FFF786FD00998DF89A0004EB8101B5
:101570002D48C1F848012FE00128C9D005F0070225
:101580000292487F62F31F1084F8F805204480F827
:10159000F985032002F0CBFC2C9800905A46514666
:1015A0002846019BFFF757FEB4F8540080B201F0C3
:1015B0006DFF2B98A065032084F8E100E08C0221E8
:1015C00000E0B8E0FFF755FD029A8DF89A0004EBB1
:1015D00082011548C1F81801032002F090FCAAE02E
:1015E000012830D0032847D04FF00E08702B64D06C
:1015F00094F88C0130B194F8FD00204490F8F9156E
:1016000002297DD0E08C90426DD194F8F80500E07D
:10161000A4E0011991F9F905002864DB401C81F868
:10162000F90503E058020020FFFFCDAB94F8E1007C
:10163000401E89F8E100002001F028FF002001F0A1
:1016400050FC012166E094F8F400204490F8F9156C
:10165000491C80F8F9152846FFF7CDFC8DF89A0053
:1016600005F0030202EB820094F8F21006FA02F28F
:10167000114384F8F21017E094F8FD00204490F82C
:10168000F915491C80F8F9152846FFF7C8FD8DF8B3
:101690009A0005F0030101EB810094F8F12006FAAD
:1016A00001F10A4384F8F120C01D20444E9940F80E
:1016B000691F9DF83C1101713DE094F8F80501198E
:1016C00091F9F90500280FDB94F9E120002A0BDDE0
:1016D000401C81F8F90594F8E100401E89F8E1000A
:1016E000042117E00CE01BE0032002F020FC0020A6
:1016F00001F0CCFE002001F0A3FE8DF89A806BE78C
:10170000032180F8F91594F8F100052140F0080054
:1017100089F8F1002846FFF7ACFC8DF89A000AE042
:10172000002001F0B3FE002001F08AFE8DF89A80BF
:1017300001E0012812D089F8E360902224976846DE
:10174000259906F00CFA26AC94E80F00FFF72AFC66
:10175000D9F86C01401CC9F86C015EE614F8E10F81
:101760009022401C20706846259906F0F8F926ADB5
:1017700095E80F00FFF7FAFCA67054F88B0F401C99
:1017800020604AE68DF89A5099F8000002280DD1A1
:1017900099F9E100002809DD401E89F8E100B9F857
:1017A00026000621FFF765FC8DF89A008DF89880D9
:1017B000042000228DF89900ADF89C802892CDE994
:1017C000292824909022CDF8AC806846259906F00F
:1017D000C6F926AC94E80F00FFF7E4FB1DE6F0B570
:1017E000D1B000244E944F94077902F0C2FBFF4D14
:1017F0002AAE2C90012F02D0062F44D055E04EA8DF
:1018000000F0F4FF9DF838019DF839119DF83B2157
:1018100000EB01209DF83A110127090401EB026158
:1018200008442A909DF83C012A9ACDE92804A21880
:1018300040EB0401CDE928212A99000600EB112094
:101840002B9085F8E340B5F8C8208DF898408DF8C6
:101850009A40ADF89C208DF8997005F160012DA893
:1018600006F07DF9902231466846249706F077F914
:1018700026AF97E80F00FFF795FBD5F86801401CED
:10188000C5F8680111E006208DF898408DF89900A0
:101890002490ADF89C4090223146684606F05FF9EE
:1018A00026AF97E80F00FFF77DFB85F8F34551B0B1
:1018B000F0BD70B50025CD49C5EBC50001EB002496
:1018C00005EB850004EB4010A02100F5C87006F080
:1018D00078F96D1C062DF3DB002084F8F10584F8FF
:1018E000F00584F8F20570BD2DE9F041BF4C0220EF
:1018F000002620706670354684F8E26040F60F00DE
:1019000000F040FC0746032001F0B0FC38004FF027
:10191000FF3701D0384621E4FFF71FFB4DF6CA60C0
:1019200024F8CC0F2575E5752576FFF7C2FF44F83E
:101930000D5C44F8095C0020656401F0B5FA0020F4
:1019400001F09FFA0121AA4801F0CFFDAFF27951D1
:10195000AFF2751001F0D6FA84F82755C4F8A450F8
:10196000C4F8A85067750020C6EBC601CC3C6FF0E8
:10197000090204EB01210B18401C83F8F925FF280C
:10198000F9DD00208D65C6E700F0F9BB9749886254
:1019900070472DE9F0470E46944D017804462972B0
:1019A0006178697361782973A1786972E178E97364
:1019B0002279AA726279EA720020A279AA73287445
:1019C00022896A82022900D10120687405F1080089
:1019D000012100F068FD207800EB4001854810F8F7
:1019E00021002875297AA07800F017FD8248A861A7
:1019F00005F1140000F003FD00F0AAFC4FF6FF799A
:101A000002281CD003281AD0A07800F076FE4008E7
:101A1000A88301D0484506D1A078784901EB400061
:101A200030F8021CA983A88B00F006FDA88B00F0FB
:101A3000FDFCA88BE883207904281DD025E02878B8
:101A4000022810D000200027A846EA7B297A00F05F
:101A500063FCA8F81C0008B14845E4D198F80800D8
:101A6000052802D002E00120EDE70127644830F8A4
:101A70001700A8F81C00D6E7202002F030FB002059
:101A800001F0BDF9082002F02AFBF088FFF77EFF85
:101A9000B088A5F802013188A5F804113088E86201
:101AA0007088A5F80601801E4843C5F808013089F2
:101AB000BDE8F047FFF7A6B84C4890F8F40070472F
:101AC0004A49084490F8F50070474849084490F89E
:101AD000FE0070474548D0F878017047434900F050
:101AE0000300403901EBC001D1E9000170473F49D3
:101AF00000F00300203901EBC001D1E9000170477B
:101B00003A4900F00300403910B501EBC001002252
:101B1000D1E900013B4B06F0F7FCBDE8104006F0B0
:101B20000DBC324900F00300203910B501EBC001B3
:101B30000022D1E90001334B06F0E6FCBDE810407D
:101B400006F0FCBB10B50621417002210170002097
:101B500001F09CFC002001F0C3FCBDE81040002017
:101B600001F0BFB970B50446C06D401CE0650020AF
:101B700060602178022909D0012503200129E1783C
:101B80000BD002291FD003292DD019E00620607048
:101B9000BDE87040002001F079BC0226022902D085
:101BA00003290AD00CE094F8F210C90708D100BF4D
:101BB00084F8E2506570A67070BD01F0E1F9F7E7B6
:101BC0006570A07070BDE18C48F20102914203D1B2
:101BD00094F8F120520706D5B1F5004FF0D194F8F2
:101BE000F1108907ECD420460EE0000058020020D6
:101BF00080D02324709000082C1C1C1DD09000085D
:101C0000D490000800408F40BDE870409AE7C34878
:101C100090F8F21501EB810100EB411090F8900172
:101C200070470FB4A02270B5BC4C04A904F5AA609B
:101C30002C9D05F094FF84F8505570BC5DF814FBA2
:101C4000B749A02205F08BBF2DE9F047B34D81467F
:101C5000002095F8F01505F5E06601EB810105EB34
:101C6000411494F890715FB3804694F891017070BC
:101C700094F89201B070B4F89401B080D4E9660190
:101C8000C6E90201D4F8A0013061D4F8A401706162
:101C9000D4F8A801B06104F5D6717F2205F21C705A
:101CA00005F05DFF377084F82B9284F8908195F8E9
:101CB000F005401CC0B285F8F005062803D005E009
:101CC0003070707004E0404685F8F08585F8F205C4
:101CD0009448BDE8F0872DE9F043CFB00022FFF72C
:101CE00096FF01468D48C2EBC20200EB022420465B
:101CF000FEF7D2FA00210028F9D00126002502289B
:101D000011D1207801280BD1D4E90A100144D4F86C
:101D100010010144C4F8EC10C4E9445084F8E460B4
:101D200084F8E350656094F8E400012802D00028AC
:101D300071D084E094F8E300002804D120780128D1
:101D400002D002281FD07AE002F013F9D4F8E8108C
:101D5000401AD4F8EC10884271D984F8E4508DF818
:101D6000985084208DF8990004202490ADF89C5060
:101D700090222AA9684605F0F2FE26AE96E80F00EA
:101D8000FFF710F95BE002F0F4F8B4F802114FF03D
:101D90000208B0FBF1F201FB120094F88C1103274A
:101DA0004FF08009B9B1D4F80811814247D8172003
:101DB00000F0A9F804F8DE7B01F0E2F8FFF779FD06
:101DC00004F8DD8C04F8796C04F8789CA571E07F48
:101DD000401CE0771AE0E08C48F2010188422ED1E5
:101DE00002F0C7F8D4F80C11884228D3172000F06D
:101DF0008AF8277001F0C4F8FFF75BFD84F80180D2
:101E000084F8658084F8669084F8E450172000F028
:101E10006FF814E0FFE72078022810D194F88C01C5
:101E200068B102F0A6F8B4F80211B0FBF1F201FBC0
:101E30001200B4F80411814201D984F8E4604FB073
:101E40000020BDE8F08310B5374C1021204604F087
:101E500040FF012003F059FF1021204604F037FF16
:101E6000052003F052FF002000F09EFF0021BDE896
:101E70001040481E01F039BB2849C1F8FC067047E4
:101E800026490862012081F82400704710B5234CD0
:101E900094F82400012807D100211E20226A00F0B6
:101EA00071F8002084F8240010BD1C4A9083D1836F
:101EB000012082F82500704710B5184C94F82500D1
:101EC000012808D1E08B00F0B7FAA08B00F0AEFA41
:101ED000002084F8250010BD1048808B70470F4803
:101EE000C08B70470D49002211F8F30F0A7070473C
:101EF00000F01F02012191404009800000F1E02024
:101F0000C0F80011704700F01F0201219140400904
:101F1000800000F1E020C0F88011704758020020D6
:101F2000A8070020580900200008014008B551B159
:101F300040F0C0008DF80000C8B27F2909D88DF8A4
:101F4000010002200DE040F080008DF8000001202B
:101F500007E040F080008DF80100C8098DF802000C
:101F60000320694601F0E2FC08BD08B589B28DF88E
:101F70000020120A8DF8012080B26B460222FFF782
:101F8000D5FF08BD38B500236C46E254120A5B1C2D
:101F9000042BFADB89B280B223460422FFF7C6FF86
:101FA00038BD08B551B140F040008DF80000C8B20E
:101FB0007F2907D88DF8010002200BE08DF8000082
:101FC000012007E040F080008DF80100C8098DF87D
:101FD00002000320694601F0D6FC08BD38B54FF079
:101FE000FF3489B280B26B460422FFF7DAFF30B9C2
:101FF00003216846425C491E02EB0424FAD52046C0
:1020000038BD38B504466B46022200213620FFF762
:10201000C8FF0E2C2CD2DFE804F00F07152B2B2B5A
:102020002B1D392B2B44494E00208DF800009DF8C4
:10203000010000F0FE0019E09DF8000000F0FC0037
:10204000401C04E09DF8000000F0FC00801C8DF8AE
:1020500000000DE09DF8000000F0B30040F04800E3
:102060008DF800009DF8010040F080008DF801001F
:102070006B46012200213620FFF758FF012211464E
:1020800036200DF10103FFF751FF38BD9DF8000028
:1020900000F0B3008DF800009DF8010000F07F0013
:1020A000E4E79DF8010040F00200DFE79DF8010041
:1020B00000F0FD00DAE79DF8000000F0CF0040F0EE
:1020C0002000C4E738B54FF6FF7489B280B26B4682
:1020D0000222FFF766FF30B99DF800009DF801105D
:1020E00000EB012084B2204638BD1CB503208DF8DA
:1020F000010001208DF8000002208DF8050000206D
:102100008DF8040001466B4602223620FFF70EFFD1
:102110004FF4004206212D20FFF727FF012003F096
:10212000F4FD01AB022200213620FFF7FFFE012063
:10213000FFF767FF00201CBD08B5010A8DF80110EC
:102140008DF800006B46022204212D20FFF7EEFEE1
:1021500003208DF800006B46012206212D20FFF799
:10216000E5FE00208DF800006B46012206212D209F
:10217000FFF7DCFE0A212D20FFF730FF08BD00210C
:1021800008462BE72DE9FC410027064604208DF880
:1021900000003D46FE4C84F8807084F82D70C4F831
:1021A000847084F86D70C4F8887084F88170C4F805
:1021B0008C70C4F890706434FFF7E1FFF54944F87F
:1021C000640D884202D08817BDE8FC810020FFF72B
:1021D00018FF6B46012200212420FFF7A7FE1E20D6
:1021E000FFF7AAFF1FFA80F84FEA1820A073300704
:1021F00004D50420FFF7A0FFC4F8880094F88800F5
:1022000010F0FF0F09D002208DF8040001AB01226D
:1022100012212D20FFF78AFE01E0C4F88850062025
:10222000FFF78AFF60600720FFF786FFA561A060C7
:1022300004EB87007F1CC561042FF9DBB0071AD5BA
:10224000A07B2746012804D81C20FFF775FFB86142
:1022500011E003280FD80D20FFF76EFFF8610E2064
:10226000FFF76AFF38620F20FFF766FF78621D20D4
:10227000FFF762FFB862C848F207007800F01F015C
:1022800004D018F01F0284F82C2001D184F82C10FF
:1022900070070CD55FF0000505F11000FFF74CFF4B
:1022A00004EB85016D1C48630C2DF5DB06E0002076
:1022B00004EB8001401C4D630C28F9DB300508D588
:1022C000FFF713FFB4F8640040F40060A4F8640062
:1022D00009E005213620FFF7F5FE20F40072052104
:1022E0003620FFF742FE0120FFF78BFE002104207D
:1022F000FFF774FE206300212620FFF76FFE40F4F5
:10230000A82200212620FFF73DFE002226213620AC
:10231000FFF72BFE002057E710B500239C4C022945
:1023200002D005290FD107E0022A01D012B10AE03C
:10233000E36908E0236A06E0022A01D012B102E054
:10234000636A00E0A36AC007C00EC34098B210BD24
:102350008F48807B704708B56B46042200212620F9
:10236000FFF71FFE9DF802006B4640F005008DF858
:102370000200042200212620FFF7D8FD08BD70B519
:102380000C46054600212620FFF728FE20F47C227B
:102390000DB142F480220CB142F4A032BDE870408D
:1023A00000212620EEE508B501438DF80010080A4B
:1023B0008DF80100080C8DF802006B4603220821FD
:1023C0002620FFF7B3FD08BD08B501438DF80010C6
:1023D000080A8DF80100080C8DF802006B460322F4
:1023E0000C212620FFF7A2FD08BD6948D0F888001F
:1023F000704767484068704765488068704710B507
:102400000446034601220B212A20FFF78FFD626854
:102410000021BDE810401E20B4E5604A515C00EB8D
:1024200041005B4901EB8000006B70475849024650
:10243000C8820021182098E555490246888241F655
:1024400004012E2091E538B504466B4601220E2189
:102450002B20FFF7A6FD9DF8000004F01F0120F0DF
:102460001F0001438DF800106B4601220E212B2026
:10247000FFF75CFD38BD38B504466D208DF80000CF
:102480006B46012240F606012E20FFF74FFD41F674
:10249000060114B140F2076201E041F207622E200A
:1024A000FFF763FD38BD2DE9F84F8A4604460578ED
:1024B00041793B484FF00009C84630F81170617807
:1024C0003348491ECEB2C0F88410042D5FD0072DCA
:1024D0005DD000218B46217801732D49E279096B8B
:1024E000002A69D021F4800101632948217A4FF440
:1024F00040334173217A026B03EA01410A430263CC
:1025000000210420FFF73EFD3A4642F604012E204A
:10251000FFF72BFD3046FFF7AEFF204F2149052284
:10252000785D00EB8000431807212B20FFF7FEFCAD
:10253000194B01220E212B20FFF7F8FC1A4901222A
:1025400001EB0B030B212820FFF7F0FC785D174906
:1025500051F820200C212820FFF714FDE0791449C0
:1025600001EB8000A17930F8112002212720FFF72C
:10257000FCFC1048042130F816202720FFF7F5FC5A
:10258000E079E8B3A078042848D0282015E038E0A6
:10259000F80900203001CADE16910008D890000822
:1025A00058910008F890000817910008E090000882
:1025B000289100083491000825E08DF800002022C1
:1025C00006212720FFF7D1FC6B4601222621272078
:1025D000FFF7ACFCFE48E17800EB061050F8212034
:1025E00008212720FFF7CEFC628941F24107BA4259
:1025F00003D020212720FFF7B8FC608998B117E0AD
:1026000006E0012166E741F48001FF0801636CE701
:10261000642206212720FFF7A8FCDBE710208DF8B5
:1026200000000246CCE73A4620212720FFF79DFC18
:10263000E84F0C2123203A68FFF7A4FC07EB460083
:10264000042182882320FFF790FCA07958B1E0791B
:10265000E1490122431800212120FFF767FC4FF0D8
:1026600003094FF0010805F00F00290740EA116047
:1026700061784FF4402202EA81410843920002EA65
:10268000095108434FF4003202EA484108432179D6
:102690004FF0F86202EA81510843617940EAC16271
:1026A00000211F20FFF76EFCA07861780843E179D4
:1026B000000440EA4130C94C40F4004200210820A7
:1026C0002261FFF75FFC5FEACA7003D094F82C0028
:1026D000FFF7B9FE5FEA8A700CD5A0693501E840C2
:1026E000C0F34E00FFF7A8FEA069E840C0F34E001B
:1026F000FFF79CFE0020BDE8F88FB84900011038B4
:102700008969C14088B2704710B514460244B2F5D9
:10271000806F02D94FF0FF3010BD0B46821E21465C
:102720000920FFF703FC002010BDAC4A10B5126968
:1027300040EA8150024300210820FFF723FC0020DB
:1027400010BD30B414460A462146034630BC112061
:1027500027E470B5054616460C460720FFF751FCE6
:102760002B46224631462520FFF71BFCBDE8704072
:10277000082046E438B504466B46022205211520A0
:10278000FFF70FFC9DF800009DF8011000EB012001
:1027900080B205F06AFE6FF0050206F0FDFBC4E9A9
:1027A000040100212E20FFF78DFC20800021122043
:1027B000FFF788FCA08002211220FFF783FCE08055
:1027C00004211220FFF77EFC208106211220FFF752
:1027D00079FC608107211520FFF774FC60800021DF
:1027E0001020FFF7FBFB000DA08138BD034605223A
:1027F00000211720FFF7D5BB01211720FFF7EEBB03
:1028000000211720FFF7EABB03460522002115200F
:10281000FFF7C7BB01211520FFF7E0BB0021152002
:10282000FFF7DCBB01210620FFF7D8BB03460522DA
:1028300000210620FFF7B5BB10B504460021042097
:10284000FFF7CCFB664908403CB120F4FF7004F46C
:10285000FF71014341F0010201E020F001025F48F5
:1028600000210263BDE810400420FFF78BBB024645
:1028700002210320FFF779BB024600210320FFF766
:1028800074BB0346082200210120FFF74FBB03461B
:10289000082200210120FFF784BB2DE9FC5F0746D9
:1028A000002603208DF80000344635466B46012291
:1028B00007212D20FFF73AFB07F00F0749F22020F0
:1028C00041F62401062F11D2DFE807F01003080BB0
:1028D0000FF041F2240506460E2407E00D46064699
:1028E00003E00D4606464E2400E003248DF8006008
:1028F000300A8DF801006B46022200212D20FFF7DF
:1029000015FB4FF008088DF800806B460122062168
:102910002D20FFF70BFB02208DF800006B460122F3
:1029200007212D20FFF702FB4FF088098DF800905A
:102930006B46012206212D20FFF7F8FA4FF0800A9E
:102940008DF800A06B46012206212D20FFF7EEFA3C
:1029500000268DF800606B46012206212D20FFF72E
:10296000E5FA05208DF800006B46012207212D2095
:10297000FFF7DCFA8DF80040200A8DF801006B4665
:10298000022200212D20FFF7D1FA8DF800806B463E
:10299000012206212D20FFF7C9FA4FF0040B8DF814
:1029A00000B06B46012207212D20FFF7BFFA8DF8FA
:1029B00000906B46012206212D20FFF7B7FA8DF813
:1029C00000A06B46012206212D20FFF7AFFA09E097
:1029D000389100081C91000824910008F809002093
:1029E000FFFF47F08DF800606B46012206212D2085
:1029F000FFF79CFA01248DF800406B462246072120
:102A00002D20FFF793FA8DF80050280A8DF8010069
:102A10006B46022200212D20FFF788FA8DF80080F6
:102A20006B46012206212D20FFF780FA0A2003F0D1
:102A30006CF98DF800606B46012207212D20FFF70D
:102A400075FA8DF800406B46012206212D20FFF714
:102A50006DFA02208DF800006B46012207212D201F
:102A6000FFF764FA8DF800B06B46012207212D2094
:102A7000FFF75CFA642003F048F98DF800606B46BC
:102A8000012207212D20FFF751FA8DF800606B46D7
:102A9000012206212D20FFF749FA0A2003F035F91B
:102AA000012F05D0022F03D008E0FFE724251CE703
:102AB00001AB012208212D20FFF773FA0020BDE8A9
:102AC000FC9F7CB50D46044601AB012208212D2058
:102AD000FFF767FA9DF80400800705D4F74804F073
:102AE0005BFE4FF0FF307CBD200E8DF80300200C04
:102AF0008DF80200200A8DF801008DF800406B4629
:102B0000042200212D20FFF711FAC5F302208DF8D1
:102B100001008DF800506B46022204212D20FFF7A2
:102B200005FA40208DF800006B46012206212D2079
:102B3000FFF7FCF900208DF800006B46012206210A
:102B40002D20FFF7F3F9012003F0DFF801AB01229C
:102B500008212D20FFF725FA9DF80400C007F2D0C8
:102B600000207CBD2DE9F041002605460F46344685
:102B70003046FFF746FA0120FFF78FFE3946284618
:102B8000FFF79FFF3846FFF7D7FAA84200D101268A
:102B9000641C052C01D0002EF0D00420FFF77DFE30
:102BA0003846FFF7C9FAA84201D1002401E04FF0EE
:102BB000FF340020FFF771FE2046BDE8F08108B524
:102BC00004208DF800006B46012202212C20FFF723
:102BD000ADF900208DF800006B46012202212C2067
:102BE000FFF7A4F908BD08B500208DF800006B467A
:102BF000012202212C20FFF799F902208DF8000014
:102C000001466B4601222C20FFF790F908BDEAE748
:102C1000F8B5012604468DF800606B463246002167
:102C20003620FFF783F900258DF800506B4601220E
:102C300006212C20FFF77AF98DF800506B4601220F
:102C40000A212C20FFF772F9FFF7B9FF8DF8004039
:102C5000200A8DF801006B46022208212C20FFF784
:102C600065F9FFF7ACFF8DF800606B4601220A2181
:102C70002C20FFF75BF9FFF7A2FF8DF800506B46A1
:102C8000012200213620FFF751F9F8BDF8B50420E4
:102C90008DF800006B4601220A212C20FFF746F92F
:102CA000FFF78DFF00248DF800406B4601220A21BA
:102CB0002C20FFF73BF9FFF782FF01208DF8000081
:102CC00002466B4600213620FFF730F9012003F061
:102CD0001CF876208DF800006B46012204212C2080
:102CE000FFF724F980258DF800506B460122022160
:102CF0002C20FFF71BF988278DF800706B46012206
:102D000002212C20FFF712F96B46012203212C200F
:102D1000FFF747F99DF800004FF6FF7101EA002622
:102D200075208DF800006B46012204212C20FFF74E
:102D3000FDF88DF800506B46012202212C20FFF790
:102D4000F5F88DF800706B46012202212C20FFF768
:102D5000EDF86B46012203212C20FFF722F99DF8A4
:102D600000508DF8004035436B46012202212C2093
:102D7000FFF7DCF88DF800406B4601220021362079
:102D8000FFF7D4F82846F8BD38B50C4602460021B6
:102D90002C20FFF7EAF88DF800406B46012206214F
:102DA0002C20FFF7C3F838BD10B5044604213620A7
:102DB000FFF714F914B140F4006201E020F400625E
:102DC0000421BDE810403620FFF7DCB870B50D4691
:102DD0000646FFF7D4F93A4CA0420ED00021334604
:102DE0002A460846FFF7DDF8052002F08EFFFFF7C0
:102DF000C6F9A04201D0A01770BD002070BD38B543
:102E000000F00301012000EB411403218DF80110B3
:102E10008DF800006B46022200213620FFF786F86D
:102E2000224612212D20FFF7A0F80120FFF7E9F834
:102E300038BD10B5044600210420FFF7CFF8214922
:102E4000086314B120F4802001E040F4802008637E
:102E500002460021BDE810400420FFF793B810B5EA
:102E6000184C02021A20216B41F08041216302219B
:102E7000FFF77BF8226B0021BDE810400420FFF72C
:102E800081B810490A6B20B122F4805008630120F8
:102E900003E042F480500863002081F82D000A6BA3
:102EA00000210420FFF76EB808B500218DF800104E
:102EB00004490A6B40B142F0005007E064940008F6
:102EC0003001CADEF809002022F000500863000E2D
:102ED0008DF800006B46012203210420FFF726F83D
:102EE00008BD10B5044600211A20FFF777F8C4F397
:102EF00013026FF3130002430021BDE810401A20B3
:102F0000FFF740B8FE4AC2E92301704708B56B4697
:102F1000012200210F20FFF744F89DF8000000F087
:102F2000010008BD08B5E0208DF800006B460122C5
:102F300003213620FEF7FAFFF0208DF800006B46E3
:102F4000012203213620FEF7F1FF08BD1CB56B46B8
:102F5000012203210F20FFF724F89DF8000000F064
:102F6000800100F04000B1EB400F08D001208DF847
:102F70000400024601AB03210D20FEF7D7FF1CBD64
:102F800038B540208DF8000000210E20FFF726F80C
:102F9000044600F0A5FC0546002211460E20FEF76F
:102FA000F1FF6B46012200210D20FEF7BFFFD54A3D
:102FB00000210F20FEF7E6FFFFF7C8FF22460021A1
:102FC0000E20FEF7DFFF284600F097FCCC490020DA
:102FD00081F8810038BD10B502210F20FFF772F88B
:102FE00000F0100010BD2DE9FC5F4FF00008C44D4B
:102FF0004646414685F86C8095F82D0085F87200AC
:103000000F20FEF7EBFFC04AA86605F19403116894
:10301000044643F82100491C11600A2900DB1660B0
:10302000A4F50000C01E03D1FFF7AAFFFFF77AFF47
:10303000DFF8CCA261054FF003070AF1680A4FF4EC
:10304000807B1CD595F82D00C8B9C4F34220072811
:1030500015D0FFF795FFFFF765FF286B04F0F80424
:10306000800005D55A4600210D20FEF77EFF06E0C0
:1030700085F86C70D5F8901009B150468847600407
:103080004FF0010972D5600571D5E00212D5FFF746
:1030900077FFFFF747FF286B800007D502B05A463D
:1030A000BDE8F05F00210D20FEF75FBF05F86C7FE3
:1030B000696A6DE000211020FFF704F8904BC0F31F
:1030C00009077033022200211120FEF76AFF687B96
:1030D00008B907F07F07A5F86E70200705D595F8A9
:1030E0007000810644D5022842D004F0080085F81B
:1030F0006D00022085F86C0095F82D00A8B38DF8BE
:1031000004906B46012203210F20FEF74AFF9DF831
:10311000000000F0800100F04000B1EB400F07D14B
:1031200004F4C04242EA080200210F20FEF72AFF01
:10313000286B800004D45A4600210D20FEF715FFAD
:10314000D5F8901009B150468847FFF744FF30B3D7
:10315000FFF716FFFFF7E6FE286B800004D55A46FE
:1031600000210D20FEF701FFA9E408E028E01DE0A2
:1031700085F86D604FF0080885F88160B9E704F4C0
:10318000DE4242EA080200210F20FEF7FBFE6AE061
:103190000029E9D002B05046BDE8F05F084701AB16
:1031A000012203210D20FEF7C1FE88E4286B800078
:1031B00001D4FFF7E5FEFFF7B5FE85F8816075E7FE
:1031C000200616D5F82200210F20FEF7DBFE95F829
:1031D0006D0048B185F86D6095F82D0020B995F81F
:1031E000810008B1FFF7CCFE85F86C90D5F88C1003
:1031F000CEE7A00310D504F4003200210F20FEF723
:10320000C1FE042085F86C00D5F8901009B1504635
:10321000884785F8816052E43C4814EA0002A3D054
:1032200000210F20FEF7AEFE85F88160286B80003C
:1032300001D4FFF7A5FEFFF775FEE00401D50820D5
:103240000CE020040DD4E00301D5092006E0600164
:1032500001D50A2002E0A00203D50B2085F86C00FE
:1032600001E085F86C70D5F8901091E738B5044608
:10327000C0076B464FF002024FF000014FF02600EE
:103280002DD0FEF78EFE9DF80100012220F03C00BB
:1032900040F014008DF80100114626200DF10103C5
:1032A000FEF744FE6B46012202213620FEF779FE2E
:1032B0009DF800006B4640F084008DF8000001226C
:1032C00002213620FEF732FE10208DF8000001208A
:1032D0008DF80100022228216B4636200BE0FEF714
:1032E00060FE9DF801006B4620F014008DF801008F
:1032F000022200212620FEF719FEA0071AD507E0BA
:10330000F8090020F8FF272400000020009027245F
:103310000F208DF800006B4601222A213620FEF78F
:1033200005FE00208DF800006B4601222A21362080
:10333000FEF7FCFD38BD10B50020FEF762FE00224E
:103340000421BDE810403620FEF70FBE02460121E1
:103350000A20FEF717BEF8B50024054626468DF86C
:1033600000408007FE4F0BD580208DF800006B4693
:10337000012200210D20FEF7D9FD012087F88100F0
:10338000E8079DF8000021D040F006008DF800000D
:103390006B46012200210D20FEF7C8FD03210F20FE
:1033A000FEF790FE10F4816F1AD040208DF80000D7
:1033B0006B46012200210D20FEF7B8FD0020FFF72B
:1033C000F3FC87F881604FF0FF3409E040F0020021
:1033D0008DF800006B46012200210D20FEF7A6FDAE
:1033E0002046F8BD10B570B141EA022020F0F0028D
:1033F00000211D20FEF7B9FD00213620FEF7EEFD6D
:1034000040F080720AE0002211461D20FEF7ADFD5B
:1034100000213620FEF7E2FD20F080720021BDE899
:1034200010403620FEF7AEBD41EA022121F0F00245
:10343000C00703D000211D20FEF797BD0022F9E749
:1034400070B50446FFF782FD4FF480752A46E00709
:1034500001D04FF4407200210D20FEF786FDE007F9
:1034600012D003210F20FEF72DFE10F4816F0BD038
:10347000FFF786FDA00704D52A4600210D20FEF7A0
:1034800074FD4FF0FF3070BD002070BD38B50546AB
:103490006B46012203210420FEF783FDB04C75B179
:1034A0002A4600210C20FEF760FD9DF8000040F048
:1034B00010008DF80000206B40F0805008E09DF86F
:1034C000000020F010008DF80000206B20F08050EC
:1034D00020636B46012203210420FEF727FD38BD3F
:1034E000024624212720FEF740BD70B50E46044653
:1034F00000F0F6F9054600210E20FEF76FFD0EB133
:10350000204300E0A043024600210E20FEF73AFDD2
:103510002846BDE8704000F0F0B938B504460220F6
:103520008DF800006B46012200212F20FEF7FEFCE3
:10353000002C08D001208DF8000002466B460021C7
:103540002F20FEF7F3FC38BD10B5044604212F20D0
:10355000FEF744FDC0F30B012180C0F30B406080F7
:1035600008212F20FEF73AFDC0F30B01A180C0F324
:103570000B40E0800C212F20FEF730FDC0F30B0143
:103580002181C0F30B40608110212F20FEF726FD22
:10359000C0F30B41E181C0F30B00A08114212F2067
:1035A000FEF71CFDC0F30B416182C0F30B002082CB
:1035B00018212F20FEF712FDC0F30B01A182C0F3EA
:1035C0000B40E08210BD38B500240094FFF7B3FE35
:1035D000002211462C20FEF7C8FC6B460122062172
:1035E0002C20FEF7A3FCFFF7FEFA6B460122032115
:1035F0003620FEF7D6FC9DF800006B4600F00F0069
:103600008DF80000012203213620FEF78FFC0120F7
:1036100002F07BFB9DF800006B4640F0F0008DF857
:103620000000012203213620FEF780FC4C4880F880
:10363000814038BD38B50446FFF77DFE494D4A4903
:103640000522285D00EB8000431807212B20FEF7A0
:103650006DFC464B01220E212B20FEF767FC285DF6
:10366000434951F820200C212820FEF78BFC4FF411
:10367000FF1200212820FEF785FC3E4A0021282069
:10368000FEF780FC22208DF800006B46012200210D
:103690003620FEF74BFC07208DF8000001226B4618
:1036A00011463620FEF742FC002226213620FEF786
:1036B0005CFC13208DF800006B4601220C212A20AF
:1036C000FEF734FC002038BD38B50446FFF733FE62
:1036D0004FF4FF1200212820FEF754FC254A002158
:1036E0002820FEF74FFC0220FEF78BFC0D20FEF792
:1036F00088FC042C00D20424224600210A20FEF774
:1037000041FC10208DF800006B46012224212F205F
:10371000FEF70CFC38BDF8B5044680208DF800009B
:103720006B46012211212820FEF700FC0A208DF8AB
:1037300000006B46012212212820FEF7F7FB0F2024
:103740008DF800006B46012212212820FEF7EEFBC7
:10375000002501228DF800506B4629462A200BE0F7
:10376000F8090020D8900008F89000081691000889
:10377000E090000800FF5F00FEF7D8FB01208DF805
:10378000000002466B4600212A20FEF7CFFB012CE9
:103790001BD00020FEF735FC6B46022203212A20B5
:1037A000FEF7FFFB0120FEF72CFC00BF9DF8006038
:1037B0009DF801408DF800506B46012200212A201F
:1037C000FEF7B4FB46EA0420F8BD012002F09DFAA2
:1037D0006B46022203212A20FEF7E3FBE6E708B549
:1037E0006B46012204212A20FEF7DBFB9DF8000036
:1037F00008BD08B56B46012203212A20FEF7D1FB44
:103800009DF8000008BD000070B50546164600246E
:10381000084605F0A3F8022205F0BEFB04F08EFD79
:10382000FF2800DDFF202A49012EA1F108020CD05B
:10383000042D2DD0072D2BD0515D01EB810202EB21
:10384000C101244A02EB410133E0042D0AD0072DC7
:1038500008D0515D01EB810202EB41111C4A083294
:1038600011440FE0495D1B4A01EB0111883A02EB5C
:10387000810100E0641C0A5D8242FBDBA4F11C00B4
:103880001CE0641C0A5D8242FBDBA4F1170015E01A
:10389000495D01EB8102C2EB81110E4A683211448D
:1038A00000E0641C0A5D8242FBDBA4F11E0005E01F
:1038B000641C0A5D8242FBDBA4F1110005F0A4F94F
:1038C00005F04CF8BDE87040034A044B04F01CBE00
:1038D00092910008B69200087B14AE47E17A843FCB
:1038E00010B5172000F0A8FB002805D04FF0E0220B
:1038F0004FF40001C2F8801110BD002805D04FF030
:10390000E0214FF40000C1F800017047002070472B
:1039100010B5344C0221204603F0B1FC0028F9D048
:103920000021204603F03FFC002010BD2DE9F041AE
:10393000984615460F4606460024FFF7D1FF02467B
:10394000294810230360274806E0395D81810189F9
:10395000C907FCD08189641CB442F6DB002107E072
:1039600018F8014084810489E407FCD08489491C4B
:10397000A942F5D31C48001F03601046FFF7BDFFA6
:103980000020BDE8F0812DE9F0411D46164688462D
:1039900007460024FFF7A4FF0246134810230360E4
:1039A000104808E018F8041081810189C907FCD08B
:1039B00081892970641CBC42F4DB00210C4606E0BE
:1039C00084810789FF07FCD087896F54491CB14265
:1039D000F6D30548001F03601046FFF78EFF002056
:1039E000CFE700000030014014080140C17853299E
:1039F00004D101794E2905D0572905D001786429D1
:103A000004D006E001207047022070474078652806
:103A100001D000207047032070472D4808B5026888
:103A2000001D0368001D006800902AA1314803F0C2
:103A3000BFFE012008BD70B52E492F4C1022403129
:103A4000204600F075FC2B494AF6AA204031A1F12E
:103A500016020B88834215D0088048882E23401C0C
:103A6000488050804FF42A40888090805620312230
:103A7000C8800A814B8130258D81C8810A824B82A2
:103A80008D8215E04888401C48805080888890804E
:103A9000C888D080088910814889508188899081A0
:103AA000C889D081088A1082488A5082888A908288
:103AB0002046BDE870400F491022403100F045BC5F
:103AC000002070470B49102240310B4800F03DBCEC
:103AD000E8F7FF1F41542B534E3D253038782D25F4
:103AE0003038782D253038782D312D312E300D0A93
:103AF00000000000B40A002000A400082DE9FE43E5
:103B0000202000F0ECFAFDF73FFFB14D0446A8423B
:103B100018D0B04C1021204603F0DBF8012002F051
:103B2000F4F81021204603F0D2F8072002F0EDF857
:103B3000FDF72AFF0446A84202D0A817BDE8FE837D
:103B4000FFF741FDFEF755FC8046FEF755FC0746A2
:103B5000FEF7FEFB0646FEF748FC0097CDE9016044
:103B60002A4643469CA1A94803F022FE0546A749E0
:103B7000A7A003F011FE2946A44800F0D3FC20467C
:103B8000DCE72DE9FF414FF4E13002F0D9F800F015
:103B900085F900F0CCFA00F08DFB00F0A6FC9B4A02
:103BA000822382329B499C4802F0B6F94FF0E0270D
:103BB0004FF40006C7F88061984D2878FFF79EFF04
:103BC000401C1ED000F006FB00F070FB40F60F001A
:103BD000FEF7D8FA00F06CFB012105F12800FEF792
:103BE00062FC44F234042046FEF726FC2046FEF731
:103BF0001DFC3124E0074FF0040009D000F07FF9EC
:103C000008E0042000F093F904B00020BDE8F08142
:103C100000F08DF9322002F078F8641EEAD2042018
:103C200000F06DF9C7F800617C482830417802291E
:103C300002D0012902D003E0794900E07949A96066
:103C40000178794A01EB410112F821108DF800103A
:103C50004FF039310191C07900B10120FFF7E9F847
:103C60006846FEF7CCFB00279620FFF73AF940F6AE
:103C70008C20FFF70BFCDFF8B48168490022343157
:103C80000C20FEF741FD00210C20FEF74EFD012027
:103C9000FFF7ECFA0220FFF75EFB444600210F20FD
:103CA000FEF79CF920406860F8D0A88840047BD5D6
:103CB0004FF4814200210F20FEF764F9002110200B
:103CC000FEF78CF9C0F3090100225948FEF739FDCF
:103CD0005748407A10286CD10026344602A8FEF7D7
:103CE00085FD042002A9240244EA166432020E5C17
:103CF0001643401EF7D5C5E904640026344608463D
:103D0000FEF782FD042002A9240244EA166432026E
:103D10000E5C1643401EF7D54648C5E906643018C8
:103D200044F10001040A44EA01642046FFF70EFB57
:103D300024F00100010E000244F23402821841F125
:103D40000000C5E908203548D5E904234A3000F0D1
:103D500034F83248D5E906234E3000F02EF82F48CB
:103D6000D5E90823523000F028F82C4900224031D0
:103D70001820FEF7C9FC00211820FEF7D6FC012010
:103D8000FFF7E9FA00210F20FEF728F90006F9D520
:103D9000802200210F20FEF7F5F820484030877080
:103DA0007F1CFFB205E0FFE7234A00210F20FEF74A
:103DB000E9F8642001F0A9FF5FE710B50021425443
:103DC000120A42EA03621B0A491C0429F7DB10BDF0
:103DD0003001CADE0008014064657649443D25385B
:103DE000782C7061727449443D256C642C6C6F743E
:103DF00049443D256C642C766973696F6E3D257866
:103E00002C6C646F3D256C640D0A0000140B0020BF
:103E100025730000043801404400024008000020DF
:103E2000E17AF3423D8AE3427090000800D02724F3
:103E3000180C002000001C0C009027247047FEE79F
:103E4000FEE7FEE7FEE770477047704712480168DB
:103E5000491C0160704710B5AFF30080BDE8104009
:103E60004FF4005002F028BC10B5AFF30080BDE85D
:103E70001040012002F020BC10B5AFF30080BDE877
:103E80001040082002F018BC10B5AFF30080BDE868
:103E90001040202002F010BC60000020F8B5012185
:103EA0000D2003F090F801212D4802F031FF4FF46E
:103EB0007070ADF8000010242A4E8DF803400325E1
:103EC0008DF802506946304602F093FEADF800408E
:103ED0008DF803408DF802506946304602F089FEA5
:103EE0001021304602F0F3FE2001ADF8000004205E
:103EF0008DF8030069461C4802F07BFEF8BD0146C0
:103F00001848052912D2DFE801F00305070A0D0061
:103F1000402109E0802107E04FF4807104E04FF474
:103F2000007101E04FF4707102F0D3BE704701469A
:103F30000C48052912D2DFE801F00305070A0D003D
:103F4000402109E0802107E04FF4807104E04FF444
:103F5000007101E04FF4707102F0B9BE70470000CB
:103F600000023000000C0140000801404FF0FF301B
:103F70007047DE480068704770B5DD484FF47A71CD
:103F80000068B0FBF1F0B0F1807F14D220F07F40E8
:103F90004FF0E024401E606165170F21284600F0B5
:103FA00094F90020A061072020610521284600F037
:103FB0008CF9002070BDFEE71CB520200090002089
:103FC0008DF8040008218DF805108DF8060068466C
:103FD00002F014FB00201CBD7FB52024ADF80C407E
:103FE00028208DF80F0003A9C24802F002FE052127
:103FF000012002F0B6FE009400248DF80440082051
:104000008DF8050001258DF80650684602F0F6FA95
:104010004FF4C06002F0A8F917208DF808000F20B7
:104020008DF809008DF80A408DF80B5002A802F0B7
:10403000A0F904B0002070BDAF4902460020096815
:10404000114200D00120704710B586B002F0B0FEDA
:104050004FF48034204602F0C4FE02F0EFFE28B395
:10406000102002F041FB022002F02EFB002002F0A3
:104070001DFF002002F028FFA01102F01EFF6010BB
:1040800002F037FF4FF4E011204602F0F8FE012065
:1040900002F0FDFE392002F0BCFE0028FAD002201A
:1040A00002F0F8FE02F0FDFE0828FBD1684602F09F
:1040B00041FF0121080302F086FF0121880302F07D
:1040C0008BFF01210D2002F07EFF06B0002010BD05
:1040D0008A4A118821F0380101431180704730B5B8
:1040E000864D044685B0284602F0BCFF0021ADF89D
:1040F00000104FF48270ADF80200ADF8081068159A
:10410000ADF80A00ADF80410ADF80C400720ADF88A
:104110000610ADF80E10ADF810006946284602F002
:10412000C5FF0121284603F03EF805B030BDF0B5CB
:10413000724E87B0304602F095FF0021ADF80010B6
:104140004FF48270ADF80200ADF808107015ADF8AC
:104150000A001024ADF80410ADF80C400720ADF8AB
:104160000610ADF80E10ADF810006946304602F0AA
:104170009DFFA020ADF8140018208DF81700604FA7
:1041800003258DF8165005A9384602F032FD40206F
:10419000ADF8140048208DF8170005A9384602F044
:1041A00028FDADF814408DF817408DF8165005A97C
:1041B000384602F01EFD0021304603F02CF80121A4
:1041C000304602F0F0FF1021384602F080FD07B0C3
:1041D0000020F0BDF8B50124ADF8004010208DF8A6
:1041E0000300474E03258DF802506946304602F021
:1041F00000FD0121304602F06CFDADF800400020CA
:104200008DF803008DF802506946304602F0F1FC4B
:10421000022001F07AFDF8BD7FB501250024384A5F
:104220000826ADF8085030B304208DF80B0002A921
:10423000104602F0DEFC0021084602F092FD8DF8E7
:1042400004408DF8056000958DF80650684602F030
:10425000D5F94FF4407002F087F806208DF80C0075
:104260000F208DF80D008DF80E408DF80F5003A82B
:1042700002F07FF87FBD8DF80B4003208DF80A0017
:1042800002A9104602F0B5FC8DF804408DF80560D7
:1042900000958DF80640684602F0B0F97FBD4FF0FA
:1042A000E020D0F80001C0F3C050704720200FE795
:1042B00008200DE710B503F013FAFFF7C5FEFFF76E
:1042C0005BFEFFF789FE002010BD0907090E0028DC
:1042D00006DA00F00F0000F1E02080F8141D7047AE
:1042E00000F1E02080F8001470470000600000201A
:1042F000C4010020000C01400004014000300140D6
:1043000000080140008870472DE9F04116460F462D
:104310000546002408E000BF37F81410284602F0D4
:10432000EAFA641CA4B2AD1CB442F5D3BDE8F08136
:1043300010B5002306E000BF30F8024B21F813400F
:104340005B1C9BB29342F7D310BD2DE9F05FA0F147
:10435000006415468A468346B4F5803F53D202F086
:10436000CCF9A70AC4F34806C6F50074A54200D8E4
:104370002C46DFF8A49000BF4FF0006000EB8720D0
:1043800080464FF400722449FFF7D2FF00204FF619
:10439000FF7106E0331839F813208A4203D1401C1C
:1043A00080B2A042F6D3A04225D2404602F0E0F906
:1043B0000020494607E000BF3AF810208319401C4E
:1043C00021F8132080B2A042F6D3134940464FF49F
:1043D000007200BFFFF798FFA54210D0281B0AEB20
:1043E000440AA344002685B24FF400747F1CA54202
:1043F000C2D82C46C0E7224651465846EAE7BDE8F7
:10440000F05F02F086B9BDE8F09F13B5012201A963
:10441000FFF79BFF1CBD0000980C002038B55D49DC
:104420004FF4A0642246A1F1200001F0B1FD5A49E9
:104430002246A1F5A26001F0ABFD0121042002F0AB
:10444000C2FD0824ADF8004003208DF802001020C2
:104450008DF803006946514802F0CBFBE50328467E
:1044600002F02AF94E4901200D604C71887108460E
:1044700002F0C4F838BD10B5002002F036FD01216D
:10448000BDE81040C80502F0A7BD464903200860FA
:1044900070474548817A434809B1052100E0012170
:1044A0000160704738B514208DF8000002208DF8A7
:1044B000010000248DF8024001208DF803006846B9
:1044C00001F057FF2A208DF800008DF80140684662
:1044D00001F04FFF38BD314A00284FF00801104667
:1044E00001D002F0F4BB02F0F4BB10B5FFF796FF69
:1044F000FFF7C1FFFFF7D6FFBDE8104000F018BF7F
:104500000A4601462348203801F060BD0A460146AC
:104510002048203801F042BD0A4601461D481038A7
:1045200001F054BD0A4601461A48103801F036BD64
:10453000F0B500230A24302537261F4611E000BFBE
:10454000B4EB107F02D905EB107C01E006EB107C88
:1045500001F813C001EB430C00015B1C8CF80170E7
:10456000DBB29342ECD3F0BD104810B50168001DDA
:104570000468001D006808180AD008220C49FFF7DB
:10458000D7FF0B4920460422BDE810401031CFE789
:1045900010BD0000B8100020B81500200008014030
:1045A0006400002074010020581B0020E8F7FF1F62
:1045B0006E00002070B5294D2878012815D14021C2
:1045C0002748FFF7A9FF0404240C4FF000060DD084
:1045D0002246C021224800F0A1FF2146012001F01F
:1045E00086F9012001F05CF86E6070BD2E7070BD20
:1045F0001B4910B54031032001F02BFB81B2184854
:104600004030FFF783FFBDE81040032001F058B8A9
:1046100070B51448006805281FD1104C2078002878
:104620001BD16068411C6160052816D100206060C4
:1046300040210B48FFF770FF05042D0C0DD02A46D2
:10464000C021074800F06AFF2946012001F04FF918
:10465000012001F025F80120207070BD9400002099
:10466000B81A0020740100202DE9F0414C4E88B0AA
:10467000002430684B4D688068884B4F398808406B
:10468000800507D54FF6FF5030602878401C287011
:10469000FFF7BEFF688839880840000401D500F0A4
:1046A0005BFE688839884FF6FF380840400504D51E
:1046B000C6F800803D4840688047698838880140D6
:1046C000890402D54DF6FF71316069880140C80444
:1046D00005D54EF6FF703060002000F0F0F96888D4
:1046E0003988084000050BD53148007810B100F03A
:1046F00082F902E0022000F0E2F94FF2FF70306030
:10470000688839880840C00546D54FF6FF6030609C
:104710002348001D00684FF00002000438D5686887
:10472000401C68606868032833D91D48001F016871
:1047300009072ED4016889B2A9601E494FEA0D030A
:1047400001EB8407D7F8007CBFB243F82470641CE7
:10475000082CF5D3AC6844F00104AC60AC68A4B29A
:104760000460AC6824F00104AC60AC68A4B20460DE
:1047700030684005FCD5C6F80080002053F8204082
:1047800001EB8006A4B2C6F8004C401C0828F5D303
:104790006A60072000F093F908B0BDE8F0810000DE
:1047A000445C00409C00002098010020FC00002098
:1047B0007801002000500040FFF756BF4FF48020E2
:1047C00001F07ABF10B5FFF7CFFE764800240068ED
:1047D000847200F0F1F801F01DFA7348046010BD16
:1047E000704810B50068714A00218172D279427216
:1047F000C172084600F0D4FE4FF40071002000F0B2
:10480000E7FE1021002000F0F8FE4021002001F01A
:104810004AF88021002001F03AF8002000F07CFFE7
:10482000634890F82C10002001F07FF8002000F081
:1048300047FF0021012000F0CBFEC021012001F044
:1048400026F82021012000F0D8FE0021012000F0F0
:10485000EAFE4FF4C061022000F0BAFE4FF480710E
:10486000022001F014F80021022000F0DCFE2021DB
:10487000022000F0C2FE0021032000F0A9FE4FF448
:104880008871032001F00FF84021032001F04DF85A
:104890004FF44051032000F0C6FE0021032000F039
:1048A000ACFE002000F084FC3F490120086010BDF0
:1048B0004048807A002802D03B49052008607047B4
:1048C000394904200860704739481C38017820298C
:1048D00001D1002101707047704710B13448183879
:1048E000704730490820096808820020704710B1DD
:1048F0002F48183870472B49082009680882002083
:104900007047284A10B500211268212802D02028BB
:1049100008D019E0107800F07F00212814D1AFF200
:1049200031010AE0107800F07F00212801D1AFF2B8
:1049300055011F4B20201C3B187029B100209161AC
:1049400050828847002010BD022010BD154909681B
:10495000097801F07F01212903D1022803D0222800
:1049600001D002207047002070471149103900F033
:1049700049BA0F49083900F045BA0A490968C978A7
:10498000042901D900207047094A303202EBC101E5
:1049900000F038BA09B9012801D902207047002077
:1049A000704700008C01002074010020A6930008CD
:1049B000FC000020581B002010B50120FFF78BFDE4
:1049C0006248012101600021614A0160031D1960F4
:1049D0004FF4E05111800160002010BD10B55B4C18
:1049E00001202060211D00200860FFF774FD0320D6
:1049F0002060002010BDF8B55449002000900A68DE
:104A0000544B554C92B200BF03EB8005D5F8005CC7
:104A1000ADB244F82050401C0828F5D342F4806021
:104A2000086040F00100086020F001050D60474A71
:104A3000121D10684005FCD54FF6FF3010600020B5
:104A400054F8206003EB8007B6B2C7F8006C401C36
:104A50000828F5D345F008000860086880B240F0E7
:104A6000040008603D4B18680090186820F00300AF
:104A700040F0010018603A48046844F004040460FF
:104A80001468E40409D54EF6FF7414600A6892B203
:104A900022F008020A6000991960016821F00401FF
:104AA0000160F8BD10B5294C206880B220F00400E8
:104AB0002060FFF7EEFC4FF43F40206010BD2DE971
:104AC000F041284C072800D020702278254D062779
:104AD000052104261D48062A0BD2DFE802F0030C4C
:104AE00011161E27686810B12170BDE8F081FFF72C
:104AF000D9FF2770F9E7FFF7D5FF2670012022E0E4
:104B00000220607003202070EFE76078401E607024
:104B100060780028E9D12670E7E7026892B242F097
:104B20001002026021700A206070DEE76178491E81
:104B3000617061780029D8D1016889B221F0100133
:104B40000160277000206860CFE70000405C0040F3
:104B50009801002000500040381B002000700040E9
:104B600010ED00E07C01002010B5FB4C30B1FB489B
:104B700000680068804720680A3010BD2168012065
:104B80000882002010BDF44810B50068F44AC178CE
:104B90005278914203D882780AB982880AB10220F9
:104BA00010BD8172ED48006840688047002010BD4C
:104BB00010B5E94C30B1E94800688068804720684A
:104BC0000C3010BD216801200882002010BD10B5F6
:104BD000E14CE44A20681268C178926940799047B4
:104BE00021688A7A22B118B9087908B9887808B199
:104BF000022010BDD9480068C0688047206841790C
:104C0000C172C1780173002010BDD34910B5096885
:104C100060B1D548002202800A7853060AD002F01B
:104C20007F02012A16D0022A16D001E00220088253
:104C3000002010BD497A8A06027802D542F00202AD
:104C400001E002F0FD0249060270D1B211D401F078
:104C5000FE0110E0C44810BD4A7911071306C34A8B
:104C600002EB9161D1F8001C07D5C1F3011106E0F8
:104C7000017841F00101017003E0C1F30131012924
:104C8000F6D0B648006800698047E3E72DE9F041B7
:104C9000B1480068017811F07F0102D0022905D0E7
:104CA00066E0417A01F0DF0141724EE0418800295F
:104CB0005ED10179F1BB4179AC4D21F080040A0647
:104CC00005EB8402A64BD2F8002C03D5C2F30112E7
:104CD000120102E0C2F3013212031E782346A642FB
:104CE00046D93AB3807A28B308064FEA84000ED535
:104CF0002844D0F8000CC0F30110012821D1184637
:104D000000F09CFD2046302100F077FC19E04619A8
:104D1000D6F8000CC0F30130012812D14BF68F7782
:104D200048F28008A4B1184600F076FDD6F8000CD1
:104D3000384000E01CE080F4405040EA0800C6F82B
:104D4000000C86480068406980470020BDE8F0817B
:104D5000874890F82C10002000F0E7FDD5F8000CF3
:104D6000384080F4405040EA0800C5F8000CE8E7FD
:104D70000220EBE770B578487C4D0368597921F043
:104D8000800005EB80000C06D0F8004C21F080027A
:104D900003D5C4F30114240102E0C4F30134240355
:104DA0006F4D2D78954210D95A8872B96CB19A7AA4
:104DB0005AB10906D0F8001C48F2800207D548F61F
:104DC000BF73194081F0100106E0022070BD4BF660
:104DD0008F73194081F480511143C0F8001C5F4863
:104DE000006880698047002070BD5B4810B500688E
:104DF000417A41F02001417258480068C0698047FB
:104E0000002010BD544A13685A8A10B10868104433
:104E100070478888801A1882002070472DE9F04773
:104E2000DFF83481534F4FF03009D8F8001001F10A
:104E30001005088A0E7A08B9042E04D0AC88A04266
:104E400016D8042615E04848801E0178012903D0B1
:104E50000726102038802BE0474A00211268474B74
:104E6000120403EBD2325160A7F8009001701FE0EA
:104E70000226844200D90446A96820468847824613
:104E8000002000F01DFD01462246504600F046FB82
:104E90002146002000F02BFD2888001B2880688810
:104EA00020446880A7F8009035494FF440500880AE
:104EB000D8F800000672BDE8F08770B5264D286866
:104EC000017844784A0606D001F07F00012828D0F6
:104ED00002282BD035E0092C06D0052C07D0032C56
:104EE0000ED0012C14D02CE0FFF74DFE28E0C17845
:104EF0007F292ED8817861BB818851BB807A27E0D9
:104F0000C17801291DD18088D8B9FFF76EFF17E05D
:104F1000C178012915D1818899B9407A80060AD4CF
:104F20000FE00B2C0DD1FFF752FE09E0012C02D04F
:104F3000032C03D005E0FFF7A9FE01E0FFF71AFFFD
:104F400048B108492046096849698847032819D0AB
:104F500008B1082024E017E08C0100209401002013
:104F60004C010020900100208601002000500040EC
:104F7000FC0000209C010020505C004000600040CC
:104F80009A01002009200BE0DE4A06200021126869
:104F9000DD4B120403EBD2325160DC4A3021118028
:104FA0002968087270BDF8B5D94CDA4D0926206819
:104FB000002729684278062A05D0AAB1082A4ED0CF
:104FC0000A2A52D06EE0027852066BD1807801280E
:104FD00004D0022804D0032804D063E0C96959E052
:104FE000096A57E0496A55E04288BABBC288022A7A
:104FF00058D1027992BB0278530601D1838833B12C
:1050000002F07F02012A05D0022A0DD04AE0AFF259
:1050100005413FE08A69407900219047F0B9206856
:10502000807A0028F3D13DE0417901F00F0001F0D2
:1050300070020B06B84901EB8001D1F8001C03D5C2
:10504000C1F30111090102E0C1F301310903B34BBE
:105050001B78834226D90AB90029D8D122E00078EA
:1050600040061FD1AFF2FF4114E0027802F07F0248
:10507000012A17D1827AAAB142889AB902798AB9EB
:10508000C288012A0ED18A6940790021904748B927
:10509000AFF2E34131B12068478281610020884747
:1050A000002006E0296820680969407888470328BD
:1050B00013D021680A8AA2F57F43FF3B0BD0022858
:1050C0000ED06AB10878000625D5C88800908242C3
:1050D0000AD9088218E00E72F8BD20680672F8BD81
:1050E0004FF008000872F8BD0ED228688C4B90F87B
:1050F0002C00824201D21F7006E0B2FBF0F400FBEC
:10510000142008B901201870286890F82C008882B3
:10511000BDE8F84082E60320087282490003088057
:10512000F8BD814810B590F82C10002000F0FDFB70
:1051300077480068007A082802D0092809D006E0DC
:1051400078494FF480500880704910200880002072
:1051500010BD012010BD70B56A4800686C4D000498
:10516000C10B69480144098989B200EB41042868F0
:10517000017A09290FD02178017061784170A088E7
:1051800000F03CFD29684880208900F037FD29683F
:105190008880A089C880286801210172C08820B158
:1051A000FFF701FFBDE87040BBE7FFF786FEF9E7B8
:1051B000F0B55A49584D48F68F770B78002148F2E0
:1051C000800C0BE0CEB205EB8604D4F8002C3A40FC
:1051D000324342EA0C02C4F8002C491C9942F1D334
:1051E000484940F08000091F0860F0BD10B5484CE8
:1051F0002068017A022904D0042902D0062905D0AA
:1052000015E0FFF70BFE2068007A11E041780529D0
:1052100009D10178490606D1C078FFF7C9FF434894
:105220000068006A80473B48006880688047082023
:1052300021680872BDE8104073E710B5344C20684F
:10524000007A022811D004280FD0032804D00528A2
:1052500002D0072805D008E000F00EF82068007A98
:1052600004E02C480068C068804708202168087264
:10527000BDE8104055E770472DE9F047244EDFF8B0
:105280008C803027356835F8100FA968A9B100B3B4
:10529000AC88844200D90446204688478146288845
:1052A000001B2880688820446880002000F013FBE1
:1052B00001462246484600F044F9288848B1194979
:1052C0004FF4405008800021084600F010FBA8F879
:1052D00000702888A988884201D3032001E018B112
:1052E000052031680872E6E5316806200872054934
:1052F00000200968044A090402EBD1314860A8F88B
:105300000070D8E5505C0040006000409C01002027
:105310008C01002090010020005000404C01002032
:10532000840100209A010020FC000020940100204C
:1053300006480549022201600A72064A0449C0E98A
:105340000112086800470000581B00208C01002053
:10535000FC000020500100202DE9F84F0020ADF89E
:105360000000DFF89CA14BF6BF7648F28007644D41
:10537000644C40F68F7848F60F7BDFF88C910AF189
:10538000440A31E00888614A10F00F00107034D0F0
:105390005F4901EB8001D1F8002CADF80020BDF889
:1053A000002012040BD5D1F8002C02EA0802C1F843
:1053B000002C584901EB800050F8040C8047BDF8E0
:1053C0000000000610D551485149007801EB8001DA
:1053D000D1F8002C02EA0B02C1F8002C4E4901EB77
:1053E000800050F8040C8047DAF800004946A9F81C
:1053F00000000004C6D4BDE8F88F2868208020880B
:1054000000F030006080208800F440502080286840
:10541000304080F4005080F0200038432860088835
:10542000C006286815D400EA0B002860FFF7DEFEEE
:1054300026E02188890401D580F400506188C906DE
:1054400026D46188890601D580F020003843286081
:10545000D1E7ADF80000BDF80000000506D52868CA
:1054600000EA08002860FFF776FE09E0BDF80000BA
:105470000004B9D5286800EA08002860FFF7DDFEBF
:10548000286821883040C904D3D580F48050D0E703
:1054900080F01000D5E72DE9F041194C1B4E1C4F50
:1054A0004434194D26E000BF47F6FF70206028887D
:1054B00000F00F0107EB81003170D0F8002C92B2A0
:1054C000130408D5D0F8002C40F68F731A40C0F8AA
:1054D000002C104809E012060CD5D0F8002C48F634
:1054E0000F731A40C0F8002C0B4800EB810050F8F5
:1054F000040C8047206828800004D5D4BDE8F081E2
:10550000005C00409A0100209E00002088010020DD
:1055100000500040C4000020A8000020104B10B52F
:10552000521C520803EB41010AD000BF10F8013BA6
:10553000521E10F8014B43EA042321F8043BF5D135
:1055400010BD074B521C520803EB410106D000BFAF
:1055500031F8043B20F8023B521EF9D1704700009D
:1055600000600040FC4908607047FB48006880B25A
:105570007047F949091D08607047F748001D006829
:1055800080B27047F4480830006880B27047F24932
:105590000C3108607047F0480C30006880B27047EA
:1055A000ED4920F00700103108607047EA481030DC
:1055B000006880B27047E94A02EB8000C0F8001C26
:1055C0007047E64901EB8000D0F8000C80B27047CC
:1055D0008200E2480244D2F8000C48F68F131840CB
:1055E0000843C2F8000C7047DC4901EB8000D0F89A
:1055F000000CC0F34120400270478200D7480244AB
:10560000D2F8000C48F6BF731840CB0601D580F0E5
:105610001000890601D580F0200048F2800108437F
:10562000C2F8000C70478200CC480244D2F8000C4B
:105630004BF68F731840CB0401D580F48050890459
:1056400001D580F4005048F280010843C2F8000CF4
:10565000704700B50A460346FFF7B3FF9900BF4BFA
:10566000012A194407D0022A04D120F0100000BFFB
:10567000C1F8000C00BD20F48050F9E7B74901EBF8
:105680008000D0F8000CC0F3011000017047B3494E
:1056900001EB8000D0F8000CC0F30130000370472C
:1056A0008100AE480144D1F8000C48F6BF721040AA
:1056B00080F0300048F280021043C1F8000C7047BF
:1056C0008100A6480144D1F8000C4BF68F721040BF
:1056D00080F4405048F280021043C1F8000C70473B
:1056E00081009E480144D1F8000C48F68F721040AA
:1056F00048F280121043C1F8000C704781009748AF
:105700000144D1F8000C48F68F62104048F2800244
:105710001043C1F8000C7047810090480144D1F853
:10572000000C48F68F62104048F280021043C1F826
:10573000000C7047810089480144D1F8000C48F6FC
:105740008F72104048F280121043C1F8000C70476D
:10575000810082480144D1F8000C48F68F72104055
:1057600048F280121043C1F8000C704781007B485A
:105770000144D1F8000C48F68F62104048F28002D4
:105780001043C1F8000C7047744901EB8000D0F859
:10579000000CC0F30110012800D0002070476F49B1
:1057A00001EB8000D0F8000CC0F30130012800D0DC
:1057B00000207047810069480844D0F8001C40F67A
:1057C0008F721140C0F8001C704781006348084484
:1057D000D0F8001C48F60F721140C0F8001C70474A
:1057E00081005E480144D1F8000C48F68F721040E9
:1057F0004CF280021043C1F8000C704781005748FA
:105800000144D1F8000C48F68F72104048F2C002F3
:105810001043C1F8000C7047810050480844D0F88C
:10582000001C490409D5D0F8001C48F68F721140BD
:105830004CF280021143C0F8001C704781004748B9
:105840000844D0F8001C490609D5D0F8001C48F6D9
:105850008F72114048F2C0021143C0F8001C70471B
:1058600082003E481044D0F8002C48F68F731A404E
:105870000A4348F280010A43C0F8002C70473749B8
:1058800001EB8000D0F8000C00F00F007047324AA6
:1058900021F001011032126892B202EBC000304ACE
:1058A00042F8101070472C4A21F0010110321268A2
:1058B00092B202EBC0002A4A02EB400081607047BE
:1058C00025491031096889B201EBC000244931F83B
:1058D000100080B2704720491031096889B201EB8D
:1058E000C0001F4901EB4000008980B270471A4A8E
:1058F0001032126892B202EBC000194A02EB40006B
:10590000416070473E2909D94A09C90601D1521E92
:1059100092B24FF4004141EA822104E04A08C907EB
:1059200000D0521C9102016070470B4A103212687D
:1059300092B202EBC0000A4A0C3202EB40023E294E
:1059400010D94809C90601D1401E80B24FF4004168
:1059500041EA80200BE00000405C00400050004025
:10596000006000404808C90700D0401C8002106059
:105970007047A549096889B201EBC000A34901EB52
:1059800040008088C0F3090070479F49096889B2C8
:1059900001EBC0009D4901EB40008089C0F3090084
:1059A000704730B521F0010497490B6822F00102DD
:1059B0009BB203EBC0035D00944BEC50096889B2C5
:1059C00001EBC00003EB4000826030BD8E4A21F045
:1059D0000101126892B202EBC0008C4A42F810102A
:1059E0007047894A21F00101126892B202EBC000AF
:1059F000864A02EB4000816070478349096889B29A
:105A000001EBC000814931F8100080B270477E4937
:105A1000096889B201EBC0007C4901EB40000089B4
:105A200080B270472DE9F043774D012912D0022949
:105A30000ED1296889B201EBC0014B0073490B44B8
:105A40005A602B689BB203EBC00001EB4000C260C0
:105A5000BDE8F08329686D4B89B201EBC0011B1DC5
:105A600003EB410C530951085E1E4C1C4FF40049D6
:105A70003E2A07D91F465FEAC26800D1B7B249EA99
:105A8000872705E00F465FEAC27800D02746BF02AD
:105A9000CCF800702D68ADB205EBC0005B4D0C3545
:105AA00005EB40003E2A05D9D10600D1B3B249EA40
:105AB000832103E0D20700D0214689020160C7E7B5
:105AC000514B01290AD0022907D1196889B201EB8B
:105AD000C0004E4901EB400042607047196889B22E
